LogicalName                                                                                                                      PhysicalName                                                                                                                                                                                                                                                         Type FileGroupName                                                                                                                    Size                 MaxSize              FileId               CreateLSN                   DropLSN                     UniqueId                             ReadOnlyLSN                 ReadWriteLSN                BackupSizeInBytes    SourceBlockSize FileGroupId LogGroupGUID                         DifferentialBaseLSN         DifferentialBaseGUID                 IsReadOnly IsPresent TDEThumbprint                              SnapshotUrl
-------------------------------------------------------------------------------------------------------------------------------- -------------------------------------------------------------------------------------------------------------------------------------------------------------------------------------------------------------------------------------------------------------------- ---- -------------------------------------------------------------------------------------------------------------------------------- -------------------- -------------------- -------------------- --------------------------- --------------------------- ------------------------------------ --------------------------- --------------------------- -------------------- --------------- ----------- ------------------------------------ --------------------------- ------------------------------------ ---------- --------- ------------------------------------------ ------------------------------------------------------------------------------------------------------------------------------------------------------------------------------------------------------------------------------------------------------------------------------------------------------------------------------------------------
ODS_PRIMARY_DATA01                                                                                                               C:\SQL Server\Data\NBS_ODSE1.mdf                                                                                                                                                                                                                                     D    PRIMARY                                                                                                                                     410648576       35184372080640                    1                           0                           0 00000000-0000-0000-0000-000000000000                           0                           0            376897536             512           1 NULL                                         2098000000038000039 60EC9DCF-7695-466D-AD43-752714BE55FF          0         1 NULL                                       NULL
ODS_PRIMARY_DAT02                                                                                                                C:\SQL Server\Data\NBS_ODSE2.mdf                                                                                                                                                                                                                                     D    PRIMARY                                                                                                                                     138280960       35184372080640                    3            5000000004500001                           0 00000000-0000-0000-0000-000000000000                           0                           0            137691136             512           1 NULL                                         2098000000038000039 60EC9DCF-7695-466D-AD43-752714BE55FF          0         1 NULL                                       NULL
ODS_ACTS01                                                                                                                       C:\SQL Server\Data\NBS_ODSE3.mdf                                                                                                                                                                                                                                     D    ODS_ACTS                                                                                                                                     10485760       35184372080640                    4            5000000005400001                           0 00000000-0000-0000-0000-000000000000                           0                           0                65536             512           2 NULL                                         2098000000038000039 60EC9DCF-7695-466D-AD43-752714BE55FF          0         1 NULL                                       NULL
ODS_ACTS02                                                                                                                       C:\SQL Server\Data\NBS_ODSE4.mdf                                                                                                                                                                                                                                     D    ODS_ACTS                                                                                                                                     10485760       35184372080640                    5            5000000006300001                           0 00000000-0000-0000-0000-000000000000                           0                           0                65536             512           2 NULL                                         2098000000038000039 60EC9DCF-7695-466D-AD43-752714BE55FF          0         1 NULL                                       NULL
ODS_ENTITIES01                                                                                                                   C:\SQL Server\Data\NBS_ODSE5.mdf                                                                                                                                                                                                                                     D    ODS_ENTITIES                                                                                                                                 10485760       35184372080640                    6            5000000007200001                           0 00000000-0000-0000-0000-000000000000                           0                           0                65536             512           3 NULL                                         2098000000038000039 60EC9DCF-7695-466D-AD43-752714BE55FF          0         1 NULL                                       NULL
ODS_ENTITIES02                                                                                                                   C:\SQL Server\Data\NBS_ODSE6.mdf                                                                                                                                                                                                                                     D    ODS_ENTITIES                                                                                                                                 10485760       35184372080640                    7            5000000008100001                           0 00000000-0000-0000-0000-000000000000                           0                           0                65536             512           3 NULL                                         2098000000038000039 60EC9DCF-7695-466D-AD43-752714BE55FF          0         1 NULL                                       NULL
ODS_ENTITIES_LOCATOR01                                                                                                           C:\SQL Server\Data\NBS_ODSE7.mdf                                                                                                                                                                                                                                     D    ODS_ENTITY_LOCATOR                                                                                                                           10485760       35184372080640                    8            5000000009000001                           0 00000000-0000-0000-0000-000000000000                           0                           0                65536             512           4 NULL                                         2098000000038000039 60EC9DCF-7695-466D-AD43-752714BE55FF          0         1 NULL                                       NULL
ODS_ENTITIES_LOCATOR02                                                                                                           C:\SQL Server\Data\NBS_ODSE8.mdf                                                                                                                                                                                                                                     D    ODS_ENTITY_LOCATOR                                                                                                                           10485760       35184372080640                    9            5000000009900001                           0 00000000-0000-0000-0000-000000000000                           0                           0                65536             512           4 NULL                                         2098000000038000039 60EC9DCF-7695-466D-AD43-752714BE55FF          0         1 NULL                                       NULL
ODS_HIST01                                                                                                                       C:\SQL Server\Data\NBS_ODSE9.mdf                                                                                                                                                                                                                                     D    ODS_HIST                                                                                                                                     10485760       35184372080640                   10            5000000010900001                           0 00000000-0000-0000-0000-000000000000                           0                           0              2621440             512           5 NULL                                         2098000000038000039 60EC9DCF-7695-466D-AD43-752714BE55FF          0         1 NULL                                       NULL
ODS_HIST02                                                                                                                       C:\SQL Server\Data\NBS_ODSE10.mdf                                                                                                                                                                                                                                    D    ODS_HIST                                                                                                                                     10485760       35184372080640                   11            5000000011800001                           0 00000000-0000-0000-0000-000000000000                           0                           0              2031616             512           5 NULL                                         2098000000038000039 60EC9DCF-7695-466D-AD43-752714BE55FF          0         1 NULL                                       NULL
ODS_INDEX01                                                                                                                      C:\SQL Server\Data\NBS_ODSE11.mdf                                                                                                                                                                                                                                    D    ODS_INDEX                                                                                                                                    10485760       35184372080640                   12           57000000043800001                           0 00000000-0000-0000-0000-000000000000                           0                           0               393216             512           6 NULL                                         2098000000038000039 60EC9DCF-7695-466D-AD43-752714BE55FF          0         1 NULL                                       NULL
ODS_INDEX02                                                                                                                      C:\SQL Server\Data\NBS_ODSE12.mdf                                                                                                                                                                                                                                    D    ODS_INDEX                                                                                                                                    10485760       35184372080640                   13           57000000044500001                           0 00000000-0000-0000-0000-000000000000                           0                           0               131072             512           6 NULL                                         2098000000038000039 60EC9DCF-7695-466D-AD43-752714BE55FF          0         1 NULL                                       NULL
ODS_REPORT01                                                                                                                     C:\SQL Server\Data\NBS_ODSE13.mdf                                                                                                                                                                                                                                    D    ODS_REPORT                                                                                                                                   10485760       35184372080640                   14            5000000014500001                           0 00000000-0000-0000-0000-000000000000                           0                           0                65536             512           7 NULL                                         2098000000038000039 60EC9DCF-7695-466D-AD43-752714BE55FF          0         1 NULL                                       NULL
ODS_REPORT02                                                                                                                     C:\SQL Server\Data\NBS_ODSE14.mdf                                                                                                                                                                                                                                    D    ODS_REPORT                                                                                                                                   10485760       35184372080640                   15            5000000015400001                           0 00000000-0000-0000-0000-000000000000                           0                           0                65536             512           7 NULL                                         2098000000038000039 60EC9DCF-7695-466D-AD43-752714BE55FF          0         1 NULL                                       NULL
ODS_TEXTFILE01                                                                                                                   C:\SQL Server\Data\NBS_ODSE15.mdf                                                                                                                                                                                                                                    D    ODS_TEXTFILE                                                                                                                                 10485760       35184372080640                   16            5000000016300001                           0 00000000-0000-0000-0000-000000000000                           0                           0               131072             512           8 NULL                                         2098000000038000039 60EC9DCF-7695-466D-AD43-752714BE55FF          0         1 NULL                                       NULL
ODS_TEXTFILE02                                                                                                                   C:\SQL Server\Data\NBS_ODSE16.mdf                                                                                                                                                                                                                                    D    ODS_TEXTFILE                                                                                                                                 10485760       35184372080640                   17            5000000017200001                           0 00000000-0000-0000-0000-000000000000                           0                           0               131072             512           8 NULL                                         2098000000038000039 60EC9DCF-7695-466D-AD43-752714BE55FF          0         1 NULL                                       NULL
ODS_PARTICIPATION01                                                                                                              C:\SQL Server\Data\NBS_ODSE17.mdf                                                                                                                                                                                                                                    D    ODS_PARTICIPATION                                                                                                                            10485760       35184372080640                   18            5000000018100001                           0 00000000-0000-0000-0000-000000000000                           0                           0                65536             512           9 NULL                                         2098000000038000039 60EC9DCF-7695-466D-AD43-752714BE55FF          0         1 NULL                                       NULL
ODS_PARTICIPATION02                                                                                                              C:\SQL Server\Data\NBS_ODSE18.mdf                                                                                                                                                                                                                                    D    ODS_PARTICIPATION                                                                                                                            10485760       35184372080640                   19            5000000019100001                           0 00000000-0000-0000-0000-000000000000                           0                           0                65536             512           9 NULL                                         2098000000038000039 60EC9DCF-7695-466D-AD43-752714BE55FF          0         1 NULL                                       NULL
PRIMARY_LOG1                                                                                                                     C:\SQL Server\Logs\NBS_ODSE.ldf                                                                                                                                                                                                                                      L    NULL                                                                                                                                         22740992        2199023255552                    2                           0                           0 00000000-0000-0000-0000-000000000000                           0                           0                    0             512           0 NULL                                                           0 00000000-0000-0000-0000-000000000000          0         1 NULL                                       NULL
